:1000000002013A02000000000000000200000000AF
:1000100000000002000000000000000200DE0000FE
:0E0020000000000200000000000000020000CE
:10002E00BD000BB90029E88CF084F8ACF022E4CDC9
:10003E00FF75F008E828F8E933F9ED33FDE99CED9A
:10004E009F4005FDE99CF908D5F0E9E4C9FC22ECD6
:10005E00FFF5F0E98420D21CF9ACF075F008E82821
:10006E00F8EC33FC40079F5006D5F0F222C39FFCFC
:05007E0008D5F0EA22A4
:10008300801E78C02278F92278A42278B022789949
:100093002278922278822278F8227880227890221D
:1000A300E51260DEE512640160DBE512640260D8EC
:1000B300E512640360D5E512640460D2E5126405B9
:1000C30060CFE512640660CCE512640760C9E512EF
:0B00D300640860C6E512640960C322E7
:1000DE00C000C001C0D0C0E0C0F0C082C083C2AFBB
:1000EE00C28E758DF0758B00759000740E2508F814
:1000FE0086808509907801E509088002C333D8FC13
:10010E00F9850109D3E9940840037509010508D35F
:10011E00E50894034003750800D2AFD28ED083D089
:0C012E0082D0F0D0E0D0D0D001D0003260
:10013A00758180750C00750D0075080075090175CB
:10014A008000C28FD2ABD2AFC3E58992E7F589C3EB
:10015A00E58992E6F589C3E58992E5F589D3E589CA
:10016A0092E4F589C28E758DF0758B00D28E750A70
:10017A0085750B1A7CE87D03A80AA90B112E850048
:10018A000C85010D85001211838500117C647D00A8
:10019A00A80AA90B112E7C0A7D00112EA804A90514
:1001AA0085000C85010D85001211838500107C0ADB
:1001BA007D00A80AA90B112E7C0A7D00112EA80425
:1001CA00A90585000C85010D850012118385000F94
:1001DA007C0A7D00A80AA90B112EA804A90585008E
:1001EA000C85010D850012118385000E7EA37F1EEA
:1001FA00DFFEDEFC007401250AF50A7400350BF5F2
:10020A000BD3E50A940FE50B94274006750A00758F
:06021A000B00217E80FEB6
:00000001FF
