:100000000201800200000000000000020000000069
:1000100000000002000000000000000200000000DC
:0E0020000000000200000000000000020000CE
:05002E00C000C001222A
:020033000022A9
:10003500851486E5AA30E60BE5AA20E7030080F8DB
:10004500851486E5AA20E7030080F8858615A8159E
:010055002288
:100056007901E511098002C333D9FCF8850011C284
:10006600B4430040E84401F9A80AA60108A808A973
:1000760009112EA80AA61208A808A909112EA80A6D
:10008600760008A808A909112E850013D2B41133E9
:0700960011331133A81322FE
:10009D007901E511098002C333D9FCF8850011C23D
:1000AD00B4430040E854FEF9A80AA60108A808A91F
:1000BD0009112EA80AA61208A808A909112EA80A26
:1000CD00A61308A808A909112ED2B41133113311A2
:0200DD003322CC
:0C00DF00850F11751214851013119D225D
:0E00EB00850F117512131156850010A81022F2
:1000F900D2B7D2B4C2B711331133D2B71133C2B4A4
:100109007440450FF854FEF9A80AA60108A808A9E1
:1001190009112EA80A760A08A808A909112EA80A01
:10012900760808A808A909112ED2B4113311331180
:0201390033226F
:10013B00750835750900750A14750BFF750CFF757D
:10014B000DFF75D51353AAFE00D3E5D592E6F5D571
:01015B002281
:0C015C00850F11751200851013119D22F3
:0C016800850F11751201851013119D22E6
:0C017400850F1175120D851013119D22CE
:10018000758180750E00313B750F0011F9750F00F8
:10019000751000315C750F007510FF3168750F0028
:1001A0007510FF3174750F00850E1011DF050E7587
:1001B0000F0011EBE864FFF5A07EA37F1EDFFEDEDB
:0601C000FC0080E180FE5E
:00000001FF
