:10000000020548020000000000000002000000009D
:1000100000000002000000000000000200000000DC
:0E0020000000000200000000000000020000CE
:10002E00851F86E5AA30E60AE5AA20E70280F98553
:0C003E001F86E5AA20E70280F9A88622B0
:02004A00002292
:05004C00C000C001220C
:100051007901E51C098002C333D9FCF885001CC273
:10006100B4430040E854FEF9A80AA60108A808A96B
:1000710009114CA80AA61D08A808A909114CA80A2B
:10008100A61E08A808A909114CD2B4114A114A1197
:020091004A2201
:100093007901E519098002C333D9FCF8850019C237
:1000A300B4430040E84401F9A80AA60108A808A936
:1000B30009114CA80AA61A08A808A909114CA80AEC
:1000C300760008A808A909114C85001BD2B4114A6F
:0700D300114A114AA81B228B
:0C00DA0085191C751D15851A1E11512278
:0600E6007F14DFFE002282
:0A00EC007E097FE9DFFEDEFC002242
:1000F600851019751A1511938500185300F7850098
:100106001885101985001A11DAE51854FBF88500D0
:100116001885101985001A11DAE518540FF98501AA
:1001260018E51754F0F8E94200850018851019857E
:10013600001A11DAE50F60055318FB800343180413
:1001460085101985181A11DAE5184408F88500187B
:1001560085101985001A11DA114AE51854F7F88541
:10016600001885101985001A11DAE51854FBF88570
:10017600001885101985001A11DA53180FE517545F
:100186000FFA7904EA098002C333D9FCF84218E56C
:100196000F60055318FB8003431804851019851852
:1001A6001A11DAE5184408F8850018851019850033
:1001B6001A11DA114AE51854F7F88500188510194E
:1001C60085001A11DAE50F600411EC800211E622AF
:0001D60029
:0C01D60085151C751D0185161E11512297
:0C01E200750F0085151711F6750F01222E
:1001EE00D2B7D2B4C2B7114A114AD2B7114AC2B469
:1001FE0074404515F854FEF9A80AA60108A808A9E6
:10020E0009114CA80A760A08A808A909114CA80ACF
:10021E00760808A808A909114CD2B4114A114A113E
:02022E004A2262
:0D0230007D077E567F3CDFFEDEFCDDFA22FE
:10023D0085111085111531EE11EC11EC11EC8510B5
:10024D0019751A1511938500125300038500128537
:10025D00101985001A11DA851019751A0111938577
:10026D00001253000385001285101585001631D636
:10027D00851019751A1511938500124300308500EC
:10028D001285101985001A11DAE5124408F8850057
:10029D001285101985001A11DAE51254F7F8850048
:1002AD001285101985001A11DA11ECE5124408F8BF
:1002BD0085001285101985001A11DAE51254F7F828
:1002CD0085001285101985001A11DA11ECE512441A
:1002DD0008F885001285101985001A11DAE51254F7
:1002ED00F7F885001285101985001A11DA11ECE561
:1002FD00124420F88500125300EF85001285101965
:10030D0085001A11DAE5124408F8850012851019D6
:10031D0085001A11DAE51254F7F8850012851019C7
:10032D0085001A11DA11ECE5124408F885001285E2
:10033D00101985001A11DAE51254F7F885001285A7
:10034D00101985001A11DAE51254DFF885001243F1
:10035D00008085001285101985001A11DAE5124406
:10036D0008F885001285101985001A11DAE5125466
:10037D00F7F885001285101985001A11DA11ECE5D0
:10038D0012547FF885001243001085001285101954
:10039D0085001A11DAE5124408F885001285101946
:1003AD0085001A11DAE51254F7F885001285101937
:1003BD0085001A11DAE51254EFF88500128510192F
:1003CD0085001A11DAE5124408F885001285101916
:1003DD0085001A11DAE51254F7F885001285101907
:1003ED0085001A11DA11ECE5124408F88500128522
:1003FD00101985001A11DAE51254F7F885001285E7
:10040D00101985001A11DAE5124410F885001285CD
:10041D00101985001A11DAE5124408F885001285C5
:10042D00101985001A11DAE51254F7F885001285B6
:10043D00101985001A11DA11ECE51254EFF8850048
:10044D001285101985001A11DAE5124408F8850095
:10045D001285101985001A11DAE51254F7F8850086
:10046D001285101985001A11DAE51244F0F885008D
:10047D001285101985001A11DAE5124408F8850065
:10048D001285101985001A11DAE51254F7F8850056
:0F049D001285101985001A11DA11EC750F012262
:1004AC0075082E750900750A1F750CFF750DFF7503
:1004BC000EFF75D51353AAFE00D3E5D592E6F5D5FC
:0104CC00220D
:0804CD00E493F608A3D9F9221B
:1004D5008019751180802E7511C080297511948041
:1004E500247511D4801F751180801AE5116401608F
:1004F500E1E511640260E0E511640360DFE5116484
:100505000460DE80E1C3E5129401F8E51128F88561
:10051500001185001711F6750F00751400E51325F8
:1005250014F8E6600DE5132514F8861531E2051477
:0605350080EB750F0122AE
:0D053B007D047E2B7F9DDFFEDEFCDDFA22BD
:100548007581801205DD91AC751100513D7517015B
:1005580011F675170C11F675110175120175133F17
:1005680091D575110275120285501391D5513051EC
:1005780030750B00C3E50B9404500B75171C11F66E
:10058800B13B050B80EE750B00C3E50B9408500BCF
:1005980075171811F6B13B050B80EE750B00C3E516
:1005A8000B9408500B75171C11F6B13B050B80EE28
:0405B80080D480FE6D
:0E05DD00783079217582BC7583051204CD2219
:0F05BC007777772E6D696B726F652E636F6D00A9
:1005CB006D696B726F456C656B74726F6E696B6185
:0105DB00001F
:0105DC0030EE
:00000001FF
