:100000000203B40200000000000000020000000033
:1000100000000002000000000000000200000000DC
:0E0020000000000200000000000000020000CE
:06002E007F14DFFE00223A
:0A0034007E097FE9DFFEDEFC0022FA
:02003E0000229E
:10004000E51B5480F8630080E86004780080027843
:1000500001E81392A5E51B5440F8630040E86004F2
:10006000780080027801E81392A4E51B5420F8631D
:100070000020E86004780080027801E81392A3E58C
:100080001B5410F8630010E86004780080027801C7
:10009000E81392A2E5106004780080027801E8136A
:1000A00092A0D2A1113EC2A1E51B5408F86300083A
:1000B000E86004780080027801E81392A5E51B54FB
:1000C00004F8630004E86004780080027801E81313
:1000D00092A4E51B5402F8630002E86004780080F3
:1000E000027801E81392A3E51B5401F8630001E8CC
:1000F0006004780080027801E81392A2E5106004A1
:10010000780080027801E81392A0D2A1113EC2A12A
:0B011000E510600411348002112E2263
:0C011B0075100085161B114075100122A4
:10012700BD000BB90029E88CF084F8ACF022E4CDCF
:10013700FF75F008E828F8E933F9ED33FDE99CEDA0
:100147009F4005FDE99CF908D5F0E9E4C9FC22ECDC
:10015700FFF5F0E98420D21CF9ACF075F008E82827
:10016700F8EC33FC40079F5006D5F0F222C39FFC02
:0501770008D5F0EA22AA
:06017C007F03DFFE0022FC
:10018200751600751800751900751A10C3E51994D3
:100192000450507580F0E51A64FFF580113E113E5F
:1001A200E58044F0F88500176300FF850017E860DA
:1001B2001B851816E51760117801E517088002C340
:1001C20013D8FCF517051680EB7519047801E51AAA
:1001D200088002C333D8FCF51AE5182404F5180583
:0601E2001980A9A81622F5
:0401E8007580FF22FD
:1001EC00C2A1C2A0113411341134C2A5C2A4C2A33D
:1001FC00C2A2D2A3D2A2D2A1113EC2A11134D2A1C9
:10020C00113EC2A11134D2A1113EC2A11134D2A30C
:10021C00C2A2D2A1113EC2A11134C2A5C2A4C2A3D2
:10022C00D2A3C2A2D2A1113EC2A1C2A3D2A5D2A175
:10023C00113EC2A11134C2A5D2A2D2A1113EC2A1BB
:10024C00C2A2D2A1113EC2A11134C2A2D2A1113EAE
:10025C00C2A1D2A2D2A1113EC2A11134C2A2D2A17A
:10026C00113EC2A1D2A5D2A4D2A3D2A2D2A1113E38
:08027C00C2A11134751001222A
:100284008019751180802E7511C080297511948094
:10029400247511D4801F751180801AE511640160E2
:1002A400E1E511640260E0E511640360DFE51164D7
:1002B4000460DE80E1C3E5129401F8E51128F885B5
:1002C400001185001B1140751000751400E51325FD
:1002D40014F8E6600DE5132514F88616311B051491
:0602E40080EB7510012201
:1002EA003182850011E580540FF9640F6004317C76
:0502FA0080F3A81122B1
:1002FF008019751180802E7511C080297511948019
:10030F00247511D4801F751180801AE51164016066
:10031F00E1E511640260E0E511640360DFE511645B
:10032F000460DE80E1C3E5129401F8E51128F88539
:10033F00001175100185001B114075100085131BEE
:06034F00114075100122AF
:08035500E493F608A3D9F92294
:10035D00751400C3E5149405500BE5132514F876B8
:10036D0020051480EEE5132514F876001514E51319
:10037D002514F88500157C0A7D00A811A9123127D6
:10038D00A804A905743028F9A815A6017C0A7D00DA
:10039D00A811A9123127850011850112E8497002B3
:0703AD008004151480C82232
:1003B40075818012050875090031E831EC751B015F
:1003C4001140751B0C114075110175120175133C18
:1003D4005184751102751201751335518475080025
:1003E40051EA850008E860F8805075083181AC75E1
:1003F400083281AC75083381AC75084181AC75084D
:100404003481AC75083581AC75083681AC75084209
:1004140081AC75083781AC75083881AC75083981B1
:10042400AC75084381AC75082A81AC75083081AC81
:1004340075082381AC75084481ACE508640160AAA1
:10044400E508640260A9E508640360A8E50864049B
:1004540060A7E508640560A6E508640660A5E508EC
:10046400640760A4E508640860A3E508640960A261
:10047400E508640A7002811BE508640B70028120A0
:10048400E508640C70028125E508640D7002812A78
:10049400E508640E7002812FE508640F7002813450
:1004A400E508641070028139E50865306008750953
:1004B400018508308002050975110175120A850845
:1004C4001351FFE50964FF700E750900751102757B
:1004D400120A7513315184850911E4F51275130A52
:1004E400715D75110275120A75130A518461E180F8
:0104F400FE09
:0E050800783079137582F5758304120355223D
:0104F5000006
:0404F60020202000A2
:0704FA0054696D65733A00BF
:070501004B657920203A0050
:00000001FF
