:1000000002014A020000000000000002000000009F
:1000100000000002000000000000000200F50000E7
:0E0020000000000200000000000000020000CE
:10002E00BD000BB90029E88CF084F8ACF022E4CDC9
:10003E00FF75F008E828F8E933F9ED33FDE99CED9A
:10004E009F4005FDE99CF908D5F0E9E4C9FC22ECD6
:10005E00FFF5F0E98420D21CF9ACF075F008E82821
:10006E00F8EC33FC40079F5006D5F0F222C39FFCFC
:05007E0008D5F0EA22A4
:10008300E512700575133F01F2E512640170057501
:100093001306805BE5126402700575135B8050E5FF
:1000A300126403700575134F8045E51264047005EF
:1000B300751366803AE5126405700575136D802F1C
:1000C300E5126406700575137D8024E512640770DC
:1000D300057513078019E5126408700575137F8091
:1000E3000EE5126409700575136F80037513AAA8D2
:0200F3001322D6
:1000F500C000C001C0D0C0E0C0F0C082C083C2AFA4
:10010500C28E758DF0758B00759000740E250AF8FA
:100115008680850B90E50BC333F985010BD3E994F4
:10012500084003750B01050AD3E50A9403400375DE
:100135000A00D2AFD28ED083D082D0F0D0E0D0D01A
:05014500D001D00032E2
:10014A00758180750800750900750A00750B0175BF
:10015A008000C28FD2ABD2AFC3E58992E7F589C3DB
:10016A00E58992E6F589C3E58992E5F589D3E589BA
:10017A0092E4F589C28E758DF0758B00D28E750C5E
:10018A0085750D1A7CE87D03A80CA90D112E850032
:10019A00088501098500121183E864FFF5117C6462
:1001AA007D00A80CA90D112E7C0A7D00112EA80431
:1001BA00A9058500088501098500121183E864FFF5
:1001CA00F5107C0A7D00A80CA90D112E7C0A7D0071
:1001DA00112EA804A90585000885010985001211B8
:1001EA0083E864FFF50F7C0A7D00A80CA90D112E87
:1001FA00A804A9058500088501098500121183E86C
:10020A0064FFF50E7EA37F1EDFFEDEFC007401256F
:10021A000CF50C7400350DF50DD3E50C940FE50DB6
:0E022A0094274006750C00750D00218E80FE95
:00000001FF
