:1000000002005F020000000000000002000000008B
:1000100000000002000000000000000200000000DC
:0E0020000000000200000000000000020000CE
:05002E007FCFDFFE2280
:10003300750B00A280E433F9650A701DD3E50994BA
:10004300004008112E112E150980F1A280E433F926
:0C005300650A7005750BFF8000A80B22E9
:10005F007581807580FF75A0AAC3E50892E0F50849
:10006F00750901750A001133E86007D3E50892E0BE
:10007F00F508750901750A011133E508A2E0E433AB
:10008F00F95200E8600FE5A064FFF88500A0C3E512
:09009F000892E0F50880C980FE1A
:00000001FF
