:100000000207A7020000000000000002000000003C
:1000100000000002000000000000000200000000DC
:0E0020000000000200000000000000020000CE
:06002E007F03DFFE00224B
:020034000022A8
:09003600112ED2A4112EC2A42245
:10003F007580FF11341134D2A2C2A4D2A3D2A4115D
:10004F002E858047C2A4C2A311341134854746A818
:02005F00462237
:0C006100C2A4D2A2C2A3854680113622A0
:10006D00E546547FF8850046C2A2C2A35300BF8562
:0E007D00004643004085004685008011362273
:10008B00E546547FF8850046530040E86006D2A051
:09009B00C2A18004C2A0D2A1227E
:0D00A400C2A2C2A3E54644B8F58011362281
:1000B100E88CF0A4AFF0C88DF0A42FC98CF0A4296E
:0200C100F92222
:1000C300E540547FF885004053413F850046118B3E
:1000D3007803E541088002C313D8FCF54611A485D3
:1000E3004046116D113F850044113F85004478035C
:1000F300E541088002C313D8FCF54611A4854046A8
:10010300116DE5415407F8850043A9007401098086
:1001130002C333D9FCF8850043E864FFF545E542A3
:100123007006E5455244801CE54264017006E543D0
:1001330042448010E54264027006E5436244800451
:0A014300E543424485444611612261
:10014D00D3E53595364009853539853635853936CA
:10015D00D3E5359536500F85354085374185384285
:07016D0011C3053580EA22F1
:10017400D3E53595364009853539853635853936A3
:10018400D3E5359536500F8537408535418538425E
:0701940011C3053580EA22CA
:10019B00C3E535951DF8E4951EF9AC20E4FD11B1CE
:1001AB0085003D85013E853646116D85374611A488
:1001BB00753900C3E5209401F53FD3E539953F40F0
:1001CB0002414E853646118B85374611A48536463E
:1001DB00116D113F85003A113F85003A8536461166
:1001EB008B85374611A4853646116DE508253DF9FB
:1001FB00E509353EFA850182850283E493F8850093
:10020B003B7401253DF53D7400353EF53EE864FF3A
:10021B00F53CE5387005853C3A8017E5386401708C
:10022B0005853B3A800CE53864027006E53B623A83
:10023B008000853A4611610536E539653F60040556
:10024B003921BE853646118B85374611A485364636
:10025B00116D753BFF753C00E538700A853B3A859F
:10026B003B4611618010E5386401700A853C3A8584
:07027B003C461161800022E6
:10028200C2A5C2A2C2A3D2A51134C2A0D2A17580B6
:100292003F11367580C01136D2A0C2A175803F11C0
:1002A200367580C011367520057521077508F475FD
:0902B2000916751D20751E0022BD
:0D02BB007D0D7EAB7F7CDFFEDEFCDDFA22D8
:1002C800752500D3E5259407400261527546001153
:1002D8008B85254611A4754600116D752400D3E55C
:1002E80024943F5024852282852383E493F8850053
:1002F80046116174012522F52274003523F523E5A2
:1003080024643F6004052480D5754640118B8525FB
:100318004611A4754640116D752440D3E524947F99
:100328005024852282852383E493F8850046116151
:1003380074012522F52274003523F523E524647F12
:0B0348006004052480D5052541CB2270
:10035300852327D3E527952550188522358524360F
:10036300852737852638314DE52765256004052720
:0303730080E12204
:10037600C2A0D2A1752400D3E52494075028852471
:100386004611A4752300D3E523943F500F852246DA
:100396001161E523643F6004052380EAE5246407D0
:1003A6006004052480D1C2A1D2A0752400D3E5241F
:1003B6009407502885244611A4752300D3E5239479
:1003C6003F500F8522461161E523643F60040523F3
:0D03D60080EAE52464076004052480D1223C
:1003E30085220885230985261DE4F51E852420859D
:0303F3002521229F
:1003F600852226A826E6601BA8268635852336850F
:100406002437852538319BE5232520F5230523054B
:040416002680E0223A
:10041A00C3E5289524F9E5299525FA85012B850256
:10042A002CC3E5269522F52DE5279523F52EC3E95C
:10043A00940074006480F8EA6480985015C37400CC
:10044A00952BF52B7400952CF52C7531FF7532FF21
:10045A008006753101753200C3E52D94007400647D
:10046A0080F8E52E6480985015C37400952DF52DFB
:10047A007400952EF52E752FFF7530FF8006752FA7
:10048A00017530007801E52B088007C333C52C338A
:10049A00C52CD8F7F52B7801E52D088007C333C59D
:1004AA002E33C52ED8F7F52D852240852441852A7D
:1004BA004211C3D3E52D952BE52C6480F8E52E6413
:1004CA0080985002A14E7A01E52EA82D0A8006A234
:1004DA00E713C813C8DAF8F9C3E52B98F533E52C06
:1004EA0099F534E52265267004E52365276053C330
:1004FA00E533940074006480F8E534648098401908
:10050A00E5242531F524E5253532F525C3E533956E
:10051A002DF533E534952EF534E522252FF8E5231C
:10052A003530F9850022850123E533252BF533E59E
:10053A0034352CF534850040852441852A4211C37F
:10054A0080A1A1CA7A01E52CA82B0A8006A2E7138A
:10055A00C813C8DAF8F9C3E52D98F533E52E99F5ED
:10056A0034E52465287004E52565296053C3E5331D
:10057A00940074006480F8E5346480984019E52298
:10058A00252FF522E5233530F523C3E533952BF5E1
:10059A0033E534952CF534E5242531F8E525353253
:1005AA00F9850024850125E533252DF533E5343514
:1005BA002EF534852240850041852A4211C380A147
:0105CA00220E
:1005CB00752900752A00752B00752C00752D00758B
:1005DB002E00C3E5249522F52FE5259523F53085CF
:1005EB00262B85272C7A01A927E5260A8005C333FC
:1005FB00C933C9DAF9F885002985012AC374039830
:10060B00F529740099F52A7401252BF97400352C02
:10061B00FAC3E52D99EA6480F8E52E6480984002D0
:10062B00E15FE522252DF540E524252BF5418528B5
:10063B004211C3E522252DF540C3E524952BF54149
:10064B0085284211C3C3E522952DF540E524252BC2
:10065B00F54185284211C3C3E522952DF540C3E52D
:10066B0024952BF54185284211C3E524252BF54014
:10067B00C3E540952FF540E524252DF5418528420E
:10068B0011C3E524252BF540C3E540952FF540C359
:10069B00E524952DF54185284211C3C3E524952BFF
:1006AB00F540C3E540952FF540E524252DF5418513
:1006BB00284211C3C3E524952BF540C3E540952F84
:1006CB00F540C3E524952DF54185284211C3C3E5BB
:1006DB0029940074006480F8E52A64809850297A84
:1006EB0002A92EE52D0A8005C333C933C9DAF9F8FF
:1006FB00E52928F529E52A39F52A74062529F5294E
:10070B007400352AF52A803EC3E52D952BFBE52E8B
:10071B00952CFC7A02A904EB0A8005C333C933C9B3
:10072B00DAF9F8E52928F529E52A39F52A740A2595
:10073B0029F5297400352AF52AC3E52B9401F52BED
:10074B00E52C9400F52C7401252DF52D7400352E18
:05075B00F52EC1122281
:10076000E5222401F535C3E5249401F536852337C8
:10077000852638314DE5222401F535C3E524940161
:10078000F536852537852638314D8523358525363F
:10079000852237852638317485233585253685248D
:0707A0003785263831742271
:1007A7007581805182752200717675220A75231131
:1007B70051C851BB51BB752200717675223E752316
:1007C7002875247C75253F7526017153752205759B
:1007D7002305752454752523752601F160752200BC
:1007E70075230075240075250075267F752700750C
:1007F700283F752900752A0112041A1202BB751FBA
:1008070005D3E51F943B50327D027E967F4DDFFE78
:10081700DEFCDDFA753502753636851F377538010A
:10082700120174753502753678851F3775380112D0
:10083700014DE51F2405F51F80C71202BB75220075
:10084700120376780A766D08766908766B087672F1
:1008570008766F0876450876000875220A75230A18
:100867007524087525077526201203E375220A7576
:1008770023017524077525021203F6751F01D3E5B9
:100887001F940A502D75223F752300752420752566
:100897000078037900AC1FE4FD1200B185002685BE
:1008A70001277528011205CBE51F640A6004051F9F
:1008B70080CC1202BB75220A752314752446752550
:1008C7003F7526021203531202BB7522FF120376ED
:1008D70075220A75230A75240875250775262012BF
:1008E70003E3780A7638087678087637087620089A
:1008F700764608766F08766E08767408760008756F
:10090700220A7523057524007525021203F61202C3
:10091700BB7522D475231875240375250575262004
:100927001203E3780A763308765808763508762076
:1009370008764308764108765008764908765408C1
:10094700764108764C08765308762008764F087665
:100957004E08764C0876590876000875220A7523E2
:100967003C7524027525021203F61202BB7522F4A8
:100977007523167524057525077526201203E37858
:100987000A76350876780876370876200876460896
:10099700766F08766E0876740876000875220A75F1
:1009A70023057524047525021203F61202BB75226E
:1009B7000A7523157524057525077526201203E387
:1009C700780A7635087678087637087620087646E6
:1009D70008766F08766E08767408762008762808F9
:1009E70076760876320876290876000875220A7521
:1009F70023057524067525021203F61202BB0207AA
:030A0700B180FEBD
:100A0A00000000000000000000065F5F0600000012
:100A1A000007070007070000147F7F147F7F140078
:100A2A00242E6B6B3A120000466630180C66620080
:100A3A00307A4F5D377A480004070300000000004F
:100A4A00001C3E63410000000041633E1C000000A0
:100A5A00082A3E1C1C3E2A0808083E3E08080000D8
:100A6A000080E0600000000008080808080800008C
:100A7A0000006060000000006030180C06030100EE
:100A8A003E7F71594D7F3E0040427F7F40400000CB
:100A9A00627359496F660000226349497F36000034
:100AAA00181C16537F7F5000276745457D39000083
:100ABA003C7E4B4979300000030371790F0700002F
:100ACA00367F49497F360000064F49693F1E0000BC
:100ADA0000006666000000000080E6660000000074
:100AEA00081C366341000000242424242424000026
:100AFA00004163361C080000020351590F0600002A
:100B0A003E7F415D5D1F1E007C7E13137E7C0000CC
:100B1A00417F7F49497F36001C3E63414163220081
:100B2A00417F7F41633E1C00417F7F495D416300F5
:100B3A00417F7F491D0103001C3E634151737200CE
:100B4A007F7F08087F7F000000417F7F410000000F
:100B5A00307040417F3F0100417F7F081C7763006E
:100B6A00417F7F41406070007F7F0E1C0E7F7F00B7
:100B7A007F7F060C187F7F001C3E6341633E1C008A
:100B8A00417F7F49090F06001E3F21717F5E0000E9
:100B9A00417F7F09197F6600266F4D597332000025
:100BAA0003417F7F410300007F7F40407F7F000039
:100BBA001F3F60603F1F00007F7F3018307F7F003B
:100BCA0043673C183C674300074F78784F0700009B
:100BDA00476371594D677300007F7F4141000000F0
:100BEA000103060C183060000041417F7F000000BD
:100BFA00080C0603060C08008080808080808080B4
:100C0A000000030704000000207454543C7840009C
:100C1A00417F3F4848783000387C44446C280000C3
:100C2A00307848493F7F4000387C54545C180000B3
:100C3A00487E7F490302000098BCA4A4F87C040003
:100C4A00417F7F08047C780000447D7D40000000DD
:100C5A0060E08080FD7D0000417F7F10386C440099
:100C6A0000417F7F400000007C7C18381C7C7800A3
:100C7A007C7C04047C780000387C44447C38000086
:100C8A0084FCF8A4243C1800183C24A4F8FC840032
:100C9A00447C784C041C1800485C545474240000AA
:100CAA0000043E7F442400003C7C40403C7C4000E1
:100CBA001C3C60603C1C00003C7C7038707C3C0032
:100CCA00446C3810386C44009CBCA0A0FC7C00002A
:100CDA004C64745C4C64000008083E774141000093
:100CEA0000000077770000004141773E08080000C5
:100CFA00020301030203010070784C464C7870002D
:100D0A000E9F91B1FB4A00003A7A40407A7A40003D
:100D1A00387C54555D19000002237555557D7B4278
:100D2A00217554547D794000217555547C784000D2
:100D3A00207457577C784000183CA4A4E440000073
:100D4A00023B7D55555D1B02397D54545D190000E7
:100D5A00397D55545C18000001457C7C4101000036
:100D6A000203457D7D43020001457D7C4000000071
:100D7A00797D1612167D790070782B2B7870000019
:100D8A00447C7C5555450000207454547C7C545452
:100D9A007C7E0B097F7F4900327B49497B32000008
:100DAA00327A48487A320000327A4A48783000006B
:100DBA003A7B41417B7A40003A7A42407878400057
:100DCA009ABAA0A0FA7A000001193C66663C190199
:100DDA003D7D40407D3D0000183C24E7E724240087
:100DEA00687E7F49436620002B2FFCFC2F2B0000D6
:100DFA00FFFF09092FF6F8A040C088FE7F09030209
:100E0A00207454557D79400000447D7D41000000E6
:100E1A003078484A7A320000387840427A7A40007C
:100E2A007A7A0A0A7A7000007D7D19317D7D000088
:100E3A0000262F292F2F280000262F292F260000D1
:100E4A0030784D456020000038380808080800004E
:100E5A0008080808383800004F6F3018CCEEBB91EC
:100E6A004F6F30186C76FBF90000007B7B000000A6
:100E7A00081C3622081C362222361C0822361C0878
:100E8A00AA005500AA005500AA55AA55AA55AA555E
:100E9A00DDFFAA77DDAAFF77000000FFFF00000050
:100EAA00101010FFFF000000141414FFFF000000D0
:100EBA001010FFFF00FFFF001010F0F010F0F0001C
:100ECA00141414FCFC0000001414F7F700FFFF00D0
:100EDA000000FFFF00FFFF001414F4F404FCFC0000
:100EEA0014141717101F1F0010101F1F101F1F00A8
:100EFA001414141F1F000000101010F0F00000005E
:100F0A000000001F1F1010101010101F1F101010CB
:100F1A00101010F0F0101010000000FFFF10101059
:100F2A001010101010101010101010FFFF101010D9
:100F3A00000000FFFF1414140000FFFF00FFFF1061
:100F4A0000001F1F101717140000FCFC04F4F4140F
:100F5A0014141717101717141414F4F404F4F414CF
:100F6A000000FFFF00F7F7141414141414141414D7
:100F7A001414F7F700F7F7141414141717141414A9
:100F8A0010101F1F101F1F10141414F4F41414143B
:100F9A001010F0F010F0F01000001F1F101F1F10AB
:100FAA000000001F1F141414000000FCFC14141489
:100FBA000000F0F010F0F0101010FFFF10FFFF100B
:100FCA00141414FFFF1414141010101F1F00000033
:100FDA00000000F0F0101010FFFFFFFFFFFFFFFFFF
:100FEA00F0F0F0F0F0F0F0F0FFFFFFFF000000007B
:100FFA0000000000FFFFFFFF0F0F0F0F0F0F0F0F73
:10100A00387C446C386C4400FCFE2A2A3E140000EA
:10101A007E7E020206060000027E7E027E7E0200BC
:10102A0063775D4963630000387C447C3C040400B8
:10103A0080FE7E20203E1E000406027E7C06020000
:10104A0099BDE7E7BD9900001C3E6B496B3E1C0049
:10105A004C7E7301737E4C0030784A4F7D39000014
:10106A00183C243C3C243C1898FC643C3E273D1820
:10107A001C3E6B49490000007E7F01017F7E000013
:10108A002A2A2A2A2A2A000044445F5F444400008C
:10109A0040515B4E4440000040444E5B51400000CA
:1010AA00000000FEFF01070660E080FF7F000000ED
:1010BA0008086B6B08080000243612362436120022
:1010CA0000060F090F0600000000001818000000B3
:1010DA000000001010000000103070C0FFFF010176
:1010EA00001F1F011F1E000000191D17120000001B
:1010FA0000003C3C3C3C000000000E1F11111F0E7A
:10110A000000000000F80808080808080C0C0C0C7D
:10111A000C0A0A0A0A0A0A0909090909090909092C
:10112A000909090909090909090989898989898925
:10113A008989898989898909090909090909090995
:10114A0009090DFD0DC306FC0000000000000000A7
:10115A000000000000000000000000000000000085
:10116A000000000000000000000000000000000075
:10117A000000000000000000000000000000000065
:10118A000000000000FF0000000000000000000056
:10119A00F0F0F0F0F0E0E0F0F0F0F0F0E0C0C0E0E5
:1011AA00F0F0F0F0F0E0C0000000FFFFFFFFFFC327
:1011BA00C3C3C3C3C3C30300000000000000000090
:1011CA00000000FFF04FE0FF606060202020202038
:1011DA002020202020202020404040408000000085
:1011EA0000000000000000000000000000000000F5
:1011FA0000000000000000000000000000000000E5
:10120A000000000000FF00000000000000000000D5
:10121A00FFFFFFFFFF00000000FFFFFFFFFF0000CE
:10122A000000FFFFFFFFFF000000FFFFFFFFFF813D
:10123A00818181818181800000000000000000001E
:10124A00000000FF01F8080808080808080808084C
:10125A000808080810E01824C446828285D96670F6
:10126A00A0C060602020A0A0E0E0C040408080C014
:10127A0040800000000000000000000000000000A4
:10128A0000000000003F606060E0606060606060D5
:10129A006363636363606060606363636363606026
:1012AA006060636363636360606063636363636313
:1012BA00636363636363636060606060606040404F
:1012CA0040E0E0FFF6010E060602020202020202F6
:1012DA00020202028243723E231010000703030235
:1012EA00040404040404041C10101011110909292F
:1012FA0070204305F07EAE80380000000000000038
:10130A0000000000000000000001010101010101CC
:10131A0001017F7F7F7FFFFFF7FB7BBF5F5D7DBDA5
:10132A00BD3F5D59B173F3E5CF1B3F77FFCFBFFFD9
:10133A00FFFFFFFFFFFFFF7F7F7F7F7F7F7F7FFFB3
:10134A00FFFF7F7F7D7878787878F8787878787872
:10135A0078F8F8E88F000000000000000080F0F83C
:10136A0078BCDC5CFC1C1C3C5C5C3C78F8F860C01B
:10137A008FA8D88831444832A060000000000000DD
:10138A0000000080C0F8F8F8F8FCFEFEFEFEFEFE43
:10139A00FEFEFEFEFEFFFFFFFFFFF6EFD0F6AEAD4C
:1013AA00A980D1D0E0F7F9FFFFFCDCF07FFFDFFF77
:1013BA00FFFFFFFFFFFEFEFFFFFFFFFFFFFFFEFF36
:1013CA00FFFFFFFFFFFFFEFEFEFEFEFEFEFEFEFE2D
:1013DA00FEFEFEFEFFFFFFFFFFFFFEFFBEFFFFFD5B
:1013EA00F0EFDDDFFEA888AAC4D0E4E6F87F7E9C91
:1013FA00DFE2F2F2F2F2F2B1200000000000000097
:10140A000000000101010103030307070707070F93
:10141A000F0F070F0F0F07070F0E0F0D0F2F2B2B95
:10142A002B2B2B2F6FEFFFFDFDFFFEFFFFFFFFFFB3
:10143A00BFBFEFEFEFBFFFBFFFFFFFFFFFFFFFFFE2
:10144A00FFFFFFFFFFFFFFFFFFFFFFFFFFFFFFFFA2
:10145A00FFFFFFFF7F7F7F7FFFFFBFBFBFBFFFFE93
:10146A00FFFDFFFFFFFBFFFFFF7F7D3F1F1F1F1FCA
:10147A001F1F3F0F0F0707030303000000000000B0
:10148A000000000000000000000000000000000052
:10149A000000000000000000000000000000000042
:1014AA000000000000000000000000000001010030
:1014BA00010100000000000000000000010101011C
:1014CA00010101010303030B0B0B0B07030E0606B5
:1014DA000602121313031715151101131303060637
:1014EA000E0F0F070F0F0F0B020000000000000085
:1014FA0000000000000000000000000000000000E2
:10150A00000000000000004F000000070007001460
:10151A007F147F14242A7F2A12231308646236490F
:10152A005522200005030000001C22410000412230
:10153A001C0014083E081408083E08085030000031
:10154A00000808080808006060000020100804026B
:10155A003E5149453E00427F400042615149462181
:10156A0041454B311814127F1027454545393C4AED
:10157A00494930017109050336494949360649493D
:10158A00291E003636000000563600000814224193
:10159A0000141414141400412214080201510906FB
:1015AA003E415D551E7E1111117E7F494949363EE5
:1015BA00414141227F4141221C7F494949417F09DA
:1015CA000909013E4149497A7F0808087F00417F9D
:1015DA0041002040413F017F081422417F404040A2
:1015EA00407F020C027F7F0408107F3E4141413E4A
:1015FA007F090909063E4151215E7F0919294626BC
:10160A004949493201017F01013F4040403F1F20C3
:10161A0040201F3F4038403F631408146307087096
:10162A0008076151494543007F41410002040810FF
:10163A00200041417F000402010204404040404032
:10164A00000003050020545454787F444444383839
:10165A0044444444384444447F3854545418040499
:10166A007E0505085454543C7F0804047800447DE0
:10167A0040002040443D007F1028440000417F4044
:10168A00007C047C04787C08040478384444443898
:10169A007C14141408081414147C7C0804040048EC
:1016AA005454542404043F44443C4040207C1C20AD
:1016BA0040201C3C4030403C44281028440C5050E8
:1016CA00503C4464544C44083641410000007700C1
:1016DA0000004141360808082A1C08081C2A080884
:0A16EA00FFFFFFFFFF0609090600DD
:1016F400000000000000005F000000070007001465
:101704007F147F14242A7F2A122313086462364923
:101714005522500005030000001C22410000412214
:101724001C00082A1C2A0808083E0808005030003B
:1017340000080808080800303000002010080402DF
:101744003E5149453E00427F400042615149462195
:1017540041454B311814127F1027454545393C4A01
:101764004949300171090503364949493606494951
:10177400291E0036360000005636000000081422E8
:1017840041141414141441221408000201510906CE
:10179400324979413E7E1111117E7F494949363ED5
:1017A400414141227F4141221C7F494949417F09EE
:1017B4000901013E414151327F0808087F00417F01
:1017C40041002040413F017F081422417F404040B6
:1017D400407F0204027F7F0408107F3E4141413E66
:1017E4007F090909063E4151215E7F0919294646B0
:1017F4004949493101017F01013F4040403F1F20D9
:1018040040201F7F2018207F63140814630304788A
:101814000403615149454300007F4141020408101B
:101824002041417F00000402010204404040404046
:10183400000102040020545454787F48444438384A
:1018440044444420384444487F3854545418087E4F
:10185400090102081454543C7F0804047800447DB0
:1018640040002040443D00007F10284400417F4058
:10187400007C041804787C08040478384444443810
:101884007C14141408081414187C7C0804040848F4
:1018940054545420043F4440203C4040207C1C20AD
:1018A40040201C3C4030403C44281028440C5050FC
:1018B400503C4464544C44000836410000007F000E
:1018C40000004136080008082A1C08081C2A0808D9
:1018D400000000005C000C000C7C287C7C447C2410
:1018E4001048285408000C003844004438002010E4
:1018F400081038108040001010100040002010081C
:10190400384438007C006454484454281C107C4CEF
:10191400542438542004740C285428085438005093
:101924000080500010284428282844281004540813
:10193400384C5C7814787C54283844447C44387C93
:1019440054447C14043844347C107C007C002040D3
:101954003C7C106C7C40407C087C7C047C7C447C1B
:101964007C14083844787C1468485424047C047C2F
:10197400407C3C403C7C207C6C106C1C601C64549F
:101984004C7C4400081020447C00080408808080BB
:0319940004080044
:00000001FF
