:100000000201510200000000000000020000000098
:1000100000000002000000000000000200F50000E7
:0E0020000000000200000000000000020000CE
:10002E00BD000BB90029E88CF084F8ACF022E4CDC9
:10003E00FF75F008E828F8E933F9ED33FDE99CED9A
:10004E009F4005FDE99CF908D5F0E9E4C9FC22ECD6
:10005E00FFF5F0E98420D21CF9ACF075F008E82821
:10006E00F8EC33FC40079F5006D5F0F222C39FFCFC
:05007E0008D5F0EA22A4
:10008300E512700575133F01F2E512640170057501
:100093001306805BE5126402700575135B8050E5FF
:1000A300126403700575134F8045E51264047005EF
:1000B300751366803AE5126405700575136D802F1C
:1000C300E5126406700575137D8024E512640770DC
:1000D300057513078019E5126408700575137F8091
:1000E3000EE5126409700575136F80037513AAA8D2
:0200F3001322D6
:1000F500C000C001C0D0C0E0C0F0C082C083C2AFA4
:10010500C28E758DF0758B00759000740E250AF8FA
:100115008680850B907801E50B088002C333D8FCF7
:10012500F985010BD3E994084003750B01050AD342
:10013500E50A94034003750A00D2AFD28ED083D06E
:0C01450082D0F0D0E0D0D0D001D0003249
:10015100758180750800750900750A00750B0175B8
:100161008000C28FD2ABD2AFC3E58992E7F589C3D4
:10017100E58992E6F589C3E58992E5F589D3E589B3
:1001810092E4F589C28E758DF0758B00D28E750C57
:1001910085750D1A7CE87D03A80CA90D112E85002B
:1001A100088501098500121183E864FFF5117C645B
:1001B1007D00A80CA90D112E7C0A7D00112EA8042A
:1001C100A9058500088501098500121183E864FFEE
:1001D100F5107C0A7D00A80CA90D112E7C0A7D006A
:1001E100112EA804A90585000885010985001211B1
:1001F10083E864FFF50F7C0A7D00A80CA90D112E80
:10020100A804A9058500088501098500121183E864
:1002110064FFF50E7EA37F1EDFFEDEFC0074012568
:100221000CF50C7400350DF50DD3E50C940FE50DAF
:0E02310094274006750C00750D00219580FE87
:00000001FF
