:100000000204A30200000000000000020000000043
:1000100000000002000000000000000200000000DC
:0E0020000000000200000000000000020000CE
:0A002E007E097FE9DFFEDEFC002200
:060038007F14DFFE002230
:02003E0000229E
:10004000E5165480F8630080E86004780080027848
:1000500001E81392A5E5165440F8630040E86004F7
:10006000780080027801E81392A4E5165420F86322
:100070000020E86004780080027801E81392A3E58C
:10008000165410F8630010E86004780080027801CC
:10009000E81392A2E5086004780080027801E81372
:1000A00092A0D2A1113EC2A1E5165408F86300083F
:1000B000E86004780080027801E81392A5E5165400
:1000C00004F8630004E86004780080027801E81313
:1000D00092A4E5165402F8630002E86004780080F8
:1000E000027801E81392A3E5165401F8630001E8D1
:1000F0006004780080027801E81392A2E5086004A9
:10010000780080027801E81392A0D2A1113EC2A12A
:0B011000E5086004112E800211382267
:0C011B00750800851516114075080122BA
:050127007FCFDFFE2286
:10012C008019751180802E7511C0802975119480ED
:10013C00247511D4801F751180801AE5116401603B
:10014C00E1E511640260E0E511640360DFE5116430
:10015C000460DE80E1C3E5129401F8E51128F8850E
:10016C0000118500161140750800751400E5132563
:10017C0014F8E6600DE5132514F88615311B0514EB
:06018C0080EB7508012262
:10019200BD000BB90029E88CF084F8ACF022E4CD64
:1001A200FF75F008E828F8E933F9ED33FDE99CED35
:1001B2009F4005FDE99CF908D5F0E9E4C9FC22EC71
:1001C200FFF5F0E98420D21CF9ACF075F008E828BC
:1001D200F8EC33FC40079F5006D5F0F222C39FFC97
:0501E20008D5F0EA223F
:1001E700E88CF0A4AFF0C88DF0A42FC98CF0A42937
:0201F700F922EB
:0501F9007F20DFFE2263
:1001FE00C2923127D29231F9A292E433F50B312714
:03020E00A80B2218
:10021100C2A1C2A0112E112E112EC2A5C2A4C2A329
:10022100C2A2D2A3D2A2D2A1113EC2A1112ED2A1A9
:10023100113EC2A1112ED2A1113EC2A1112ED2A3F3
:10024100C2A2D2A1113EC2A1112EC2A5C2A4C2A3B3
:10025100D2A3C2A2D2A1113EC2A1C2A3D2A5D2A150
:10026100113EC2A1112EC2A5D2A2D2A1113EC2A19C
:10027100C2A2D2A1113EC2A1112EC2A2D2A1113E8F
:10028100C2A1D2A2D2A1113EC2A1112EC2A2D2A15B
:10029100113EC2A1D2A5D2A4D2A3D2A2D2A1113E13
:0802A100C2A1112E7508012213
:1002A9008019750B80802E750BC08029750B948081
:1002B90024750BD4801F750B80801AE50B640160CF
:1002C900E1E50B640260E0E50B640360DFE50B64C4
:1002D9000460DE80E1C3E50C9401F8E50B28F8859C
:1002E900000B7508018500161140750800850D166B
:0602F9001140750801220E
:1002FF00E50B5400F8E50C5480F9E8496016A84A5C
:10030F00762D630BFF630CFF7401250BF50B740047
:10031F00350CF50C7A01E50CA80B0A8005C313C840
:10032F0013C8DAF9F985000D75F064E884F86010E8
:10033F00A84A75F064E50D84F92430F9A60180040C
:10034F00A84A7630E54A2401F875F00AE50D84F9DC
:10035F0075F00AE984E5F0F92430F9A601E54A249D
:10036F0002F875F00AE50D84E5F0F92430F9A601DD
:10037F007A03A90CE50B0A8005C333C933C9DAF92F
:10038F00F885000E85010F53000F53010085000EF5
:10039F0085010F7C717D0231E785000E85010FC04D
:1003AF0000E54A2404F8850010D0007CE87D033175
:1003BF0092743028F9A810A601E54A2405F88500A3
:1003CF00107C647D00A80EA90F31927C0A7D00314C
:1003DF0092A804A905743028F9A810A601E54A24AB
:1003EF0006F88500107C0A7D00A80EA90F31927CBB
:1003FF000A7D003192A804A905743028F9A810A627
:10040F0001E54A2407F88500107C0A7D00A80EA993
:10041F000F3192A804A905743028F9A810A6017508
:0B042F001102751205854A13312C22C2
:08043A00E493F608A3D9F922AE
:10044200750C00D3E50C94075020A80CE50B08802E
:1004520002C313D8FCF50DC292113E113EE50D13F5
:0F046200929231F9D292050C80D91138113822BB
:10047100750C00750B00D3E50B94075022C2921145
:100481003ED292113EA292E433FAA90BEA0980020C
:10049100C333D9FCF8420C11381138050B80D7A8A9
:0204A1000C222B
:1004A3007581801205445111751601114075160CA2
:1004B3001140751101751201751330312C750B0242
:1004C300750C0D750DDF51A9750B02750C0E750DAD
:1004D3004351A931FE750BCC9142750B4491427F78
:1004E30031DFFE0031FE750BCC9142750BBE91429C
:1004F3009171850009E4F50A9171A90078007A00E9
:10050300E82509F8E9350AF985000985010A850016
:100513000B85010C51FF7D047E2B7F9DDFFEDEFCEE
:06052300DDFA80AF80FE4E
:0E0544007830791B75822975830512043A22DE
:100529002054656D70657261747572653A2020207A
:0105390000C1
:09053A003030302E30303030003A
:010543004176
:00000001FF
