:1000000002003802000000000000000200000000B2
:1000100000000002000000000000000200000000DC
:0E0020000000000200000000000000020000CE
:0A002E007EA37F1EDFFEDEFC002231
:100038007581807580FF7590FF75A0FF75B0FF759D
:100048000800D3E50894075023A908740109800221
:10005800C333D9FCF84280E84290E842A0E842B0B5
:10006800112EE50864076004050880D6750800C3EA
:10007800E50894085021A9087401098002C333D9FE
:10008800FCF86300FFE85280E85290E852A0E8527A
:0B009800B0112E050880D880A680FE65
:00000001FF
