:100000000207910200000000000000020000000052
:1000100000000002000000000000000200000000DC
:0E0020000000000200000000000000020000CE
:06002E007F03DFFE00224B
:09003400112ED2A4112EC2A42247
:02003D0000229F
:10003F007580FF113D113DD2A2C2A4D2A3D2A4114B
:0F004F002E85806BC2A4C2A3113D113DA86B2268
:0C005E00C2A4D2A2C2A3856B8011342280
:10006A00E56B547FF885006B530040E86006D2A028
:09007A00C2A18004C2A0D2A1229F
:0D008300C2A2C2A3E56B44B8F5801134227F
:10009000E56B547FF885006BC2A2C2A35300BF85F5
:0E00A000006B43004085006B85008011342208
:1000AE00E88CF0A4AFF0C88DF0A42FC98CF0A42971
:0200BE00F92225
:1000C000E52C547FF885002C532D3F85006B116A79
:1000D0007803E52D088002C313D8FCF56B118385E6
:1000E0002C6B1190113F85006A113F85006A7803DF
:1000F000E52D088002C313D8FCF56B1183852C6BAA
:100100001190E52D5407F885002FA900740109808E
:1001100002C333D9FCF885002FE864FFF56980122B
:10012000E569526A801CE52F426A8016E52F626AF3
:100130008010E52E60EAE52E640160EAE52E640297
:0801400060EA856A6B115E2282
:10014800D3E5229523400985222685232285262367
:10015800D3E5229523500F85222C85242D85252E25
:0701680011C0052280EA220C
:10016F00D3E5229523400985222685232285262340
:10017F00D3E5229523500F85242C85222D85252EFE
:07018F0011C0052280EA22E5
:10019600C3E5229509F8E4950AF9AC0DE4FD11AE24
:1001A60085002A85012B85236B119085246B11838D
:1001B600752600C3E526950D4002413E85236B1149
:1001C6006A85246B118385236B1190113F85002767
:1001D600113F85002785236B116A85246B11838562
:1001E600236B1190E50B252AF9E50C352BFA8501D1
:1001F60082850283E493F88500287401252AF52A6E
:100206007400352BF52BE864FFF529801085292726
:10021600801B8528278016E52862278010E5256043
:10022600ECE525640160EBE525640260EA85276B51
:10023600115E0523052621B985236B116A85246B7A
:10024600118385236B11907528FF7529008014850D
:10025600282785286B115E801485292785296B112F
:0E0266005E800AE52560E8E525640160EC2273
:10027400851014D3E51495125012850F228511238D
:0D0284008514248513253148051480E722D8
:10029100C2A5C2A2C2A3D2A5113DC2A0D2A175809E
:1002A1003F11347580C01134D2A0C2A175803F11B5
:1002B100347580C01134750D05750807750B3275DD
:0902C1000C16750920750A0022D3
:0D02CA007D0D7EAB7F7CDFFEDEFCDDFA22C9
:1002D700751200751300751400D3E51294074002D8
:1002E700616F756B00116A85126B1183756B001155
:1002F70090751100D3E511943F5028E50F2513F9A8
:10030700E5103514FA850182850283E493F88500A8
:100317006B115E74012513F51374003514F514057C
:100327001180D1756B40116A85126B1183756B4013
:100337001190751140D3E511947F5028E50F2513CF
:10034700F9E5103514FA850182850283E493F8856F
:10035700006B115E74012513F51374003514F51441
:09036700051180D1051241E022CC
:10037000C2A0D2A1751100D3E5119407501C8511BC
:100380006B1183751000D3E510943F5009850F6BF6
:10039000115E051080F0051180DDC2A1D2A075119B
:1003A00000D3E5119407501C85116B118375100063
:1003B000D3E510943F5009850F6B115E051080F056
:0503C000051180DD22A3
:1003C500850F0B85100C85130985140A85110D857C
:0303D500120822E9
:1003D800C3E513950FF9E5149510FA850118850200
:1003E80019C3E5159511F51AE5169512F51BC3E91C
:1003F800940074006480F8EA6480985015C374000F
:100408009518F51874009519F519751CFF751DFFD9
:100418008006751C01751D00C3E51A9400740064FC
:1004280080F8E51B6480985015C37400951AF51A76
:100438007400951BF51B751EFF751FFF8006751E42
:1004480001751F007801E518088007C333C5193303
:10045800C519D8F7F5187801E51A088007C333C518
:100468001B33C51BD8F7F51A850F2C85112D851759
:100478002E11C0D3E518951AE51B6480F8E51964B8
:1004880080985002A10C7A01E519A8180A8006A2E2
:10049800E713C813C8DAF8F9C3E51A98F520E51B7D
:1004A80099F521E50F65137004E51065146053C3D1
:1004B800E520940074006480F8E521648098401970
:1004C800E511251EF511E512351FF512C3E5209536
:1004D80018F520E5219519F521E50F251CF8E510FB
:1004E800351DF985000F850110E520251AF520E551
:1004F80021351BF52185002C85112D85172E11C05E
:1005080080A1A1887A01E51BA81A0A8006A2E71330
:10051800C813C8DAF8F9C3E51898F520E51999F56C
:1005280021E51165157004E51265166053C3E520D1
:10053800940074006480F8E5216480984019E50F00
:10054800251CF50FE510351DF510C3E520951AF5A6
:1005580020E521951BF521E511251EF8E512351F2B
:10056800F9850011850112E5202518F520E52135CA
:1005780019F521850F2C85002D85172E11C080A116
:010588002250
:10058900E50F2401F522C3E5119401F52385102413
:100599008513253148E50F2401F522C3E51194019E
:1005A900F5238512248513253148851022851223C8
:1005B900850F24851325316F851022851223851116
:0705C90024851325316F2288
:0805D000E493F608A3D9F92217
:1005D800751600751700751800751900751A0075DD
:1005E8001B00C3E511950FF51CE5129510F51D8547
:1005F80013188514197A01A914E5130A8005C33361
:10060800C933C9DAF9F8850016850117C374039848
:10061800F516740099F51774012518F97400351941
:10062800FAC3E51A99EA6480F8E51B6480984002E9
:10063800E164E50F251AF52CE5112518F52D85152A
:100648002E11C0E50F251AF52CC3E5119518F52DC7
:1006580085152E11C0C3E50F951AF52CE51125183F
:10066800F52D85152E11C0C3E50F951AF52CC3E598
:10067800119518F52D85152E11C0E5112518F52CA5
:10068800C3E52C951CF52CE511251AF52D85152E9D
:1006980011C0E5112518F52CC3E52C951CF52CC3C4
:1006A800E511951AF52D85152E11C0C3E51195187C
:1006B800F52CC3E52C951CF52CE511251AF52D858F
:1006C800152E11C0C3E5119518F52CC3E52C951C02
:1006D800F52CC3E511951AF52D85152E11C0C3E526
:1006E80016940074006480F8E51764809850257AA1
:1006F80002A91BE51A0A8005C333C933C9DAF9F818
:10070800740628F8740039F9E51628F516E517393E
:10071800F517803AC3E51A9518FBE51B9519FC7A7D
:1007280002A904EB0A8005C333C933C9DAF9F8749E
:100738000A28F8740039F9E51628F516E51739F589
:1007480017C3E5189401F518E5199400F519740113
:0D075800251AF51A7400351BF51BC11F2270
:10076500751300E50F2513F8E66020E50F2513F84E
:1007750086228510238511248512253196E50D24C1
:0C07850001F8E51028F510051380D822BB
:1007910075818012190E5191750F007170750F4896
:1007A10075101051D751CA51CA750F007170750F6C
:1007B1003E75102875117C751238751301517475C9
:1007C1000F05751005751154751223751301B18943
:1007D100750F0075100075110075120075137F7586
:1007E100140075153F75160075170171D851CA753A
:1007F1000E05C3E50E943C50327D027E967F4DDF9F
:10080100FEDEFCDDFA752202752336850E24752580
:100811000112016F752202752378850E2475250159
:10082100120148E50E2405F50E80C71202CA750FA4
:1008310000120370750F48751009751108751207BC
:100841007513207514001203C5750F5075100175CD
:100851001107751202120765750E01D3E50E940A90
:100861005026750F3F751000751120751200850E09
:10087100F07403A4F8E5F0F98500138501147515EA
:10088100011205D8050E80D31202CA750F0C75101E
:10089100147511467512397513021202741202CAC7
:1008A100750FFF120370750F4875100975110875E2
:1008B10012077513207514001203C5750F477510C3
:1008C100057511007512021207651202CA750F1221
:1008D1007510187511037512057513207514001222
:1008E10003C5750F5775103C751102751202120779
:1008F100651202CA750F327510167511057512074A
:100901007513207514001203C5750F3E751005751A
:1009110011047512021207651202CA750F4875108B
:10092100147511057512077513207514001203C58E
:10093100750F3075100575110675120212076512D3
:0709410002CA02079E80FEBE
:10190E00783079207582D57583181205D078507984
:10191E00077582077583191205D07857791275826B
:08192E00F57583181205D022A3
:10094800000000000000000000065F5F06000000D5
:100958000007070007070000147F7F147F7F14003B
:10096800242E6B6B3A120000466630180C66620043
:10097800307A4F5D377A4800040703000000000012
:10098800001C3E63410000000041633E1C00000063
:10099800082A3E1C1C3E2A0808083E3E080800009B
:1009A8000080E0600000000008080808080800004F
:1009B80000006060000000006030180C06030100B1
:1009C8003E7F71594D7F3E0040427F7F404000008E
:1009D800627359496F660000226349497F360000F7
:1009E800181C16537F7F5000276745457D39000046
:1009F8003C7E4B4979300000030371790F070000F2
:100A0800367F49497F360000064F49693F1E00007E
:100A180000006666000000000080E6660000000036
:100A2800081C3663410000002424242424240000E8
:100A3800004163361C080000020351590F060000EC
:100A48003E7F415D5D1F1E007C7E13137E7C00008F
:100A5800417F7F49497F36001C3E63414163220044
:100A6800417F7F41633E1C00417F7F495D416300B8
:100A7800417F7F491D0103001C3E63415173720091
:100A88007F7F08087F7F000000417F7F41000000D2
:100A9800307040417F3F0100417F7F081C77630031
:100AA800417F7F41406070007F7F0E1C0E7F7F007A
:100AB8007F7F060C187F7F001C3E6341633E1C004D
:100AC800417F7F49090F06001E3F21717F5E0000AC
:100AD800417F7F09197F6600266F4D5973320000E8
:100AE80003417F7F410300007F7F40407F7F0000FC
:100AF8001F3F60603F1F00007F7F3018307F7F00FE
:100B080043673C183C674300074F78784F0700005D
:100B1800476371594D677300007F7F4141000000B2
:100B28000103060C183060000041417F7F0000007F
:100B3800080C0603060C0800808080808080808076
:100B48000000030704000000207454543C7840005F
:100B5800417F3F4848783000387C44446C28000086
:100B6800307848493F7F4000387C54545C18000076
:100B7800487E7F490302000098BCA4A4F87C0400C6
:100B8800417F7F08047C780000447D7D40000000A0
:100B980060E08080FD7D0000417F7F10386C44005C
:100BA80000417F7F400000007C7C18381C7C780066
:100BB8007C7C04047C780000387C44447C38000049
:100BC80084FCF8A4243C1800183C24A4F8FC8400F5
:100BD800447C784C041C1800485C5454742400006D
:100BE80000043E7F442400003C7C40403C7C4000A4
:100BF8001C3C60603C1C00003C7C7038707C3C00F5
:100C0800446C3810386C44009CBCA0A0FC7C0000EC
:100C18004C64745C4C64000008083E774141000055
:100C280000000077770000004141773E0808000087
:100C3800020301030203010070784C464C787000EF
:100C48000E9F91B1FB4A00003A7A40407A7A400000
:100C5800387C54555D19000002237555557D7B423B
:100C6800217554547D794000217555547C78400095
:100C7800207457577C784000183CA4A4E440000036
:100C8800023B7D55555D1B02397D54545D190000AA
:100C9800397D55545C18000001457C7C41010000F9
:100CA8000203457D7D43020001457D7C4000000034
:100CB800797D1612167D790070782B2B78700000DC
:100CC800447C7C5555450000207454547C7C545415
:100CD8007C7E0B097F7F4900327B49497B320000CB
:100CE800327A48487A320000327A4A48783000002E
:100CF8003A7B41417B7A40003A7A4240787840001A
:100D08009ABAA0A0FA7A000001193C66663C19015B
:100D18003D7D40407D3D0000183C24E7E724240049
:100D2800687E7F49436620002B2FFCFC2F2B000098
:100D3800FFFF09092FF6F8A040C088FE7F090302CB
:100D4800207454557D79400000447D7D41000000A9
:100D58003078484A7A320000387840427A7A40003F
:100D68007A7A0A0A7A7000007D7D19317D7D00004B
:100D780000262F292F2F280000262F292F26000094
:100D880030784D4560200000383808080808000011
:100D980008080808383800004F6F3018CCEEBB91AF
:100DA8004F6F30186C76FBF90000007B7B00000069
:100DB800081C3622081C362222361C0822361C083B
:100DC800AA005500AA005500AA55AA55AA55AA5521
:100DD800DDFFAA77DDAAFF77000000FFFF00000013
:100DE800101010FFFF000000141414FFFF00000093
:100DF8001010FFFF00FFFF001010F0F010F0F000DF
:100E0800141414FCFC0000001414F7F700FFFF0092
:100E18000000FFFF00FFFF001414F4F404FCFC00C2
:100E280014141717101F1F0010101F1F101F1F006A
:100E38001414141F1F000000101010F0F000000020
:100E48000000001F1F1010101010101F1F1010108E
:100E5800101010F0F0101010000000FFFF1010101C
:100E68001010101010101010101010FFFF1010109C
:100E7800000000FFFF1414140000FFFF00FFFF1024
:100E880000001F1F101717140000FCFC04F4F414D2
:100E980014141717101717141414F4F404F4F41492
:100EA8000000FFFF00F7F71414141414141414149A
:100EB8001414F7F700F7F71414141417171414146C
:100EC80010101F1F101F1F10141414F4F4141414FE
:100ED8001010F0F010F0F01000001F1F101F1F106E
:100EE8000000001F1F141414000000FCFC1414144C
:100EF8000000F0F010F0F0101010FFFF10FFFF10CE
:100F0800141414FFFF1414141010101F1F000000F5
:100F1800000000F0F0101010FFFFFFFFFFFFFFFFC1
:100F2800F0F0F0F0F0F0F0F0FFFFFFFF000000003D
:100F380000000000FFFFFFFF0F0F0F0F0F0F0F0F35
:100F4800387C446C386C4400FCFE2A2A3E140000AD
:100F58007E7E020206060000027E7E027E7E02007F
:100F680063775D4963630000387C447C3C0404007B
:100F780080FE7E20203E1E000406027E7C060200C3
:100F880099BDE7E7BD9900001C3E6B496B3E1C000C
:100F98004C7E7301737E4C0030784A4F7D390000D7
:100FA800183C243C3C243C1898FC643C3E273D18E3
:100FB8001C3E6B49490000007E7F01017F7E0000D6
:100FC8002A2A2A2A2A2A000044445F5F444400004F
:100FD80040515B4E4440000040444E5B514000008D
:100FE800000000FEFF01070660E080FF7F000000B0
:100FF80008086B6B080800002436123624361200E5
:1010080000060F090F060000000000181800000075
:101018000000001010000000103070C0FFFF010138
:10102800001F1F011F1E000000191D1712000000DD
:1010380000003C3C3C3C000000000E1F11111F0E3C
:101048000000000000F80808080808080C0C0C0C40
:101058000C0A0A0A0A0A0A090909090909090909EF
:1010680009090909090909090909898989898989E8
:101078008989898989898909090909090909090958
:1010880009090DFD0DC306FC00000000000000006A
:101098000000000000000000000000000000000048
:1010A8000000000000000000000000000000000038
:1010B8000000000000000000000000000000000028
:1010C8000000000000FF0000000000000000000019
:1010D800F0F0F0F0F0E0E0F0F0F0F0F0E0C0C0E0A8
:1010E800F0F0F0F0F0E0C0000000FFFFFFFFFFC3EA
:1010F800C3C3C3C3C3C30300000000000000000053
:10110800000000FFF04FE0FF6060602020202020FA
:101118002020202020202020404040408000000047
:1011280000000000000000000000000000000000B7
:1011380000000000000000000000000000000000A7
:101148000000000000FF0000000000000000000098
:10115800FFFFFFFFFF00000000FFFFFFFFFF000091
:101168000000FFFFFFFFFF000000FFFFFFFFFF8100
:1011780081818181818180000000000000000000E1
:10118800000000FF01F8080808080808080808080F
:101198000808080810E01824C446828285D96670B9
:1011A800A0C060602020A0A0E0E0C040408080C0D7
:1011B8004080000000000000000000000000000067
:1011C80000000000003F606060E060606060606098
:1011D80063636363636060606063636363636060E9
:1011E80060606363636363606060636363636363D6
:1011F8006363636363636360606060606060404012
:1012080040E0E0FFF6010E060602020202020202B8
:10121800020202028243723E2310100007030302F7
:10122800040404040404041C1010101111090929F1
:1012380070204305F07EAE803800000000000000FA
:10124800000000000000000000010101010101018F
:1012580001017F7F7F7FFFFFF7FB7BBF5F5D7DBD68
:10126800BD3F5D59B173F3E5CF1B3F77FFCFBFFF9C
:10127800FFFFFFFFFFFFFF7F7F7F7F7F7F7F7FFF76
:10128800FFFF7F7F7D7878787878F8787878787835
:1012980078F8F8E88F000000000000000080F0F8FF
:1012A80078BCDC5CFC1C1C3C5C5C3C78F8F860C0DE
:1012B8008FA8D88831444832A060000000000000A0
:1012C80000000080C0F8F8F8F8FCFEFEFEFEFEFE06
:1012D800FEFEFEFEFEFFFFFFFFFFF6EFD0F6AEAD0F
:1012E800A980D1D0E0F7F9FFFFFCDCF07FFFDFFF3A
:1012F800FFFFFFFFFFFEFEFFFFFFFFFFFFFFFEFFF9
:10130800FFFFFFFFFFFFFEFEFEFEFEFEFEFEFEFEEF
:10131800FEFEFEFEFFFFFFFFFFFFFEFFBEFFFFFD1D
:10132800F0EFDDDFFEA888AAC4D0E4E6F87F7E9C53
:10133800DFE2F2F2F2F2F2B1200000000000000059
:101348000000000101010103030307070707070F56
:101358000F0F070F0F0F07070F0E0F0D0F2F2B2B58
:101368002B2B2B2F6FEFFFFDFDFFFEFFFFFFFFFF76
:10137800BFBFEFEFEFBFFFBFFFFFFFFFFFFFFFFFA5
:10138800FFFFFFFFFFFFFFFFFFFFFFFFFFFFFFFF65
:10139800FFFFFFFF7F7F7F7FFFFFBFBFBFBFFFFE56
:1013A800FFFDFFFFFFFBFFFFFF7F7D3F1F1F1F1F8D
:1013B8001F1F3F0F0F070703030300000000000073
:1013C8000000000000000000000000000000000015
:1013D8000000000000000000000000000000000005
:1013E80000000000000000000000000000010100F3
:1013F80001010000000000000000000001010101DF
:10140800010101010303030B0B0B0B07030E060677
:1014180006021213130317151511011313030606F9
:101428000E0F0F070F0F0F0B020000000000000047
:1014380000000000000000000000000000000000A4
:10144800000000000000004F000000070007001423
:101458007F147F14242A7F2A1223130864623649D2
:101468005522200005030000001C224100004122F3
:101478001C0014083E081408083E080850300000F4
:10148800000808080808006060000020100804022E
:101498003E5149453E00427F400042615149462144
:1014A80041454B311814127F1027454545393C4AB0
:1014B8004949300171090503364949493606494900
:1014C800291E003636000000563600000814224156
:1014D80000141414141400412214080201510906BE
:1014E8003E415D551E7E1111117E7F494949363EA8
:1014F800414141227F4141221C7F494949417F099D
:101508000909013E4149497A7F0808087F00417F5F
:1015180041002040413F017F081422417F40404064
:10152800407F020C027F7F0408107F3E4141413E0C
:101538007F090909063E4151215E7F09192946267E
:101548004949493201017F01013F4040403F1F2086
:1015580040201F3F4038403F631408146307087059
:1015680008076151494543007F41410002040810C2
:10157800200041417F0004020102044040404040F5
:10158800000003050020545454787F4444443838FC
:1015980044444444384444447F385454541804045C
:1015A8007E0505085454543C7F0804047800447DA3
:1015B80040002040443D007F1028440000417F4007
:1015C800007C047C04787C0804047838444444385B
:1015D8007C14141408081414147C7C0804040048AF
:1015E8005454542404043F44443C4040207C1C2070
:1015F80040201C3C4030403C44281028440C5050AB
:10160800503C4464544C4408364141000000770083
:1016180000004141360808082A1C08081C2A080846
:0A162800FFFFFFFFFF06090906009F
:10163200000000000000005F000000070007001427
:101642007F147F14242A7F2A1223130864623649E6
:101652005522500005030000001C224100004122D7
:101662001C00082A1C2A0808083E080800503000FE
:1016720000080808080800303000002010080402A2
:101682003E5149453E00427F400042615149462158
:1016920041454B311814127F1027454545393C4AC4
:1016A2004949300171090503364949493606494914
:1016B200291E0036360000005636000000081422AB
:1016C2004114141414144122140800020151090691
:1016D200324979413E7E1111117E7F494949363E98
:1016E200414141227F4141221C7F494949417F09B1
:1016F2000901013E414151327F0808087F00417FC4
:1017020041002040413F017F081422417F40404078
:10171200407F0204027F7F0408107F3E4141413E28
:101722007F090909063E4151215E7F091929464672
:101732004949493101017F01013F4040403F1F209B
:1017420040201F7F2018207F63140814630304784D
:101752000403615149454300007F414102040810DE
:101762002041417F00000402010204404040404009
:10177200000102040020545454787F48444438380D
:1017820044444420384444487F3854545418087E12
:10179200090102081454543C7F0804047800447D73
:1017A20040002040443D00007F10284400417F401B
:1017B200007C041804787C080404783844444438D3
:1017C2007C14141408081414187C7C0804040848B7
:1017D20054545420043F4440203C4040207C1C2070
:1017E20040201C3C4030403C44281028440C5050BF
:1017F200503C4464544C44000836410000007F00D1
:1018020000004136080008082A1C08081C2A08089B
:10181200000000005C000C000C7C287C7C447C24D2
:101822001048285408000C003844004438002010A6
:1018320008103810804000101010004000201008DE
:10184200384438007C006454484454281C107C4CB2
:10185200542438542004740C285428085438005056
:1018620000805000102844282828442810045408D6
:10187200384C5C7814787C54283844447C44387C56
:1018820054447C14043844347C107C007C00204096
:101892003C7C106C7C40407C087C7C047C7C447CDE
:1018A2007C14083844787C1468485424047C047CF2
:1018B200407C3C403C7C207C6C106C1C601C645462
:1018C2004C7C4400081020447C000804088080807E
:0318D20004080007
:0E18D50035783720466F6E7420287632290051
:0918E30035783720466F6E740061
:0918EC0038783720466F6E740055
:1018F500335835204341504954414C53204F4E4CA9
:02190500590087
:071907006D696B726F450072
:00000001FF
