:100000000200920200000000000000020000000058
:1000100000000002000000000000000200000000DC
:0E0020000000000200000000000000020000CE
:0D002E00C29985159920990280FBC2992284
:05003B00C298A8992203
:08004000E493F608A3D9F922AC
:1000480075092E750A00750B15750F3B751000752F
:100058001100750C8C750D00750E0075985075871C
:08006800807588407589202293
:10007000751300A8128614E5146010851415112E4E
:0C0080000513E5122513F8861480EC220D
:06008C00A298E433F82203
:100092007581801200CA438780758DF5758BF511C5
:1000A200487EA37F1EDFFEDEFC0075123011701148
:1000B2008CE8600A113B850008850015112E80EF3F
:0200C20080FEBE
:0E00CA00783079067582C475830012004022DA
:0600C40053746172740028
:00000001FF
