:1000000002017E020000000000000002000000006B
:1000100000000002000000000000000200000000DC
:0E0020000000000200000000000000020000CE
:05002E00C000C001222A
:020033000022A9
:10003500851386E5AA30E60AE5AA20E70280F98558
:0C0045001386E5AA20E70280F9A88622B5
:100051007901E510098002C333D9FCF8850010C28B
:10006100B4430040E854FEF9A80DA60108A80BA965
:100071000C112EA80DA61108A80BA90C112EA80D64
:10008100A61208A80BA90C112ED2B41133113311E9
:02009100332218
:100093007901E510098002C333D9FCF8850010C249
:1000A300B4430040E84401F9A80DA60108A80BA930
:1000B3000C112EA80DA61108A80BA90C112EA80D22
:1000C300760008A80BA90C112E850012D2B41133A7
:0700D30011331133A81222C2
:0C00DA00850E1075110D850F12115122BA
:0C00E600850E10751114850F12115122A7
:0C00F200850E10751100850F12115122AF
:0800FE00E493F608A3D9F922EE
:10010600D2B7D2B4C2B711331133D2B71133C2B496
:100116007440450EF854FEF9A80DA60108A80BA9CF
:100126000C112EA80D760A08A80BA90C112EA80DE5
:10013600760808A80BA90C112ED2B411331133116D
:02014600332262
:0C014800850E10751101850F1211512257
:09015400850E10751112119322A1
:10015D00750B35750C00750D137508FF7509FF7559
:10016D000AFF75D51353AAFE00D3E5D592E6F5D552
:01017D00225F
:10017E007581801201C5315D750E003106750E0058
:10018E00750F0011F2750E00750FFF3148750E00D8
:10019E00750FFF11DA750E0085300F11E6053075FB
:1001AE000E003154E864FFF5A07EA37F1EDFFEDE55
:0601BE00FC0080E180FE60
:0E01C500783079017582C47583011200FE2224
:0101C400003A
:00000001FF
