:100000000201DE020000000000000002000000000B
:1000100000000002000000000000000200000000DC
:0E0020000000000200000000000000020000CE
:0A002E007E097FE9DFFEDEFC002200
:020038000022A4
:06003A007F14DFFE00222E
:10004000E53E5480F96004D2A58002C2A5E53E5485
:1000500040F96004D2A48002C2A4E53E5420F960B5
:1000600004D2A38002C2A3E53E5410F96004D2A2D8
:100070008002C2A2E52F6004C2A08002D2A0D2A159
:100080001138C2A1E53E5408F96004D2A58002C22D
:10009000A5E53E5404F96004D2A48002C2A4E53E62
:1000A0005402F96004D2A38002C2A3E53E5401F9D0
:1000B0006004D2A28002C2A2E52F6004C2A0800226
:1000C000D2A0D2A11138C2A1E52F6004112E800266
:0300D000113A22C0
:0C00D300752F00853D3E1140752F012265
:1000DF00C2A1C2A0112E112E112EC2A5C2A4C2A35D
:1000EF00C2A2D2A3D2A2D2A11138C2A1112ED2A1E3
:1000FF001138C2A1112ED2A11138C2A1112ED2A333
:10010F00C2A2D2A11138C2A1112EC2A5C2A4C2A3EC
:10011F00D2A3C2A2D2A11138C2A1C2A3D2A5D2A189
:10012F001138C2A1112EC2A5D2A2D2A11138C2A1DB
:10013F00C2A2D2A11138C2A1112EC2A2D2A11138CE
:10014F00C2A1D2A2D2A11138C2A1112EC2A2D2A194
:10015F001138C2A1D2A5D2A4D2A3D2A2D2A1113852
:08016F00C2A1112E752F01221F
:10017700E539640170057539808024E539640270BA
:10018700057539C08019E5396403700575399480A0
:100197000EE539640470057539D48003753980C359
:1001A700E53A9401F8E53928F885003985003E11CC
:1001B70040752F00853B3CA83CE6600AA83C863D7D
:0A01C70011D3053C80F1752F0122D1
:0D01D1007D047E2B7F9DDFFEDEFCDDFA222B
:1001DE00758180781E766D08766908766B08767262
:1001EE0008766F08764508766C08766508766B0893
:1001FE00767408767208766F08766E0876690876D9
:10020E006B087661087600087811764508766108E5
:10021E00767308767908763808763008763508765B
:10022E003108762008767608763608760008780843
:10023E00764C08766308766408763408766208761B
:10024E00690876740876000878317665087678083D
:10025E00766108766D08767008766C087665087695
:10026E00000811DF753E011140753E0C11407539C5
:10027E0001753A06753B083177753902753A067580
:10028E003B3131777D0D7EAB7F7CDFFEDEFCDDFA10
:10029E00753E011140753901753A01753B1E317776
:1002AE00753902753A04753B1131777D047E2B7FCB
:1002BE009DDFFEDEFCDDFA753000D3E53094035091
:1002CE0011753E1C114031D1E530640360040530D8
:1002DE0080E8753000D3E53094065011753E181144
:1002EE004031D1E53064066004053080E875300099
:1002FE00D3E53094065011753E1C114031D1E530D6
:0C030E0064066004053080E880C880FEB2
:00000001FF
