:1000000002008A0200000000000000020000000060
:1000100000000002000000000000000200000000DC
:0E0020000000000200000000000000020000CE
:0E002E00C299851A992099030080FAC299227E
:09003C00A298E433F518A818227B
:08004500C298859918A8182241
:10004D00851819A8198601E9600AA819861A112EB2
:05005D00051980EF22EF
:10006200750C2E750D00750E1A750F4575100075FD
:10007200110075083C750900750A0075985075875E
:08008200807588407589202279
:10008A00758180438780758DF5758BF511627EA326
:10009A007F1EDFFEDEFC007812765308767408763F
:1000AA006108767208767408760008751812114D80
:1000BA00751A0A112E751A0D112E113CE8600A11D3
:0D00CA004585000B85001A112E80EF80FE89
:00000001FF
