:1000000002023A02000000000000000200000000AE
:1000100000000002000000000000000200000000DC
:0E0020000000000200000000000000020000CE
:06002E007F14DFFE00223A
:0A0034007E097FE9DFFEDEFC0022FA
:02003E0000229E
:10004000E50F5480F8630080E8600478008002784F
:1000500001E81392A5E50F5440F8630040E86004FE
:10006000780080027801E81392A4E50F5420F86329
:100070000020E86004780080027801E81392A3E58C
:100080000F5410F8630010E86004780080027801D3
:10009000E81392A2E5086004780080027801E81372
:1000A00092A0D2A1113EC2A1E50F5408F863000846
:1000B000E86004780080027801E81392A5E50F5407
:1000C00004F8630004E86004780080027801E81313
:1000D00092A4E50F5402F8630002E86004780080FF
:1000E000027801E81392A3E50F5401F8630001E8D8
:1000F0006004780080027801E81392A2E5086004A9
:10010000780080027801E81392A0D2A1113EC2A12A
:0B011000E508600411348002112E226B
:0C011B00750800850E0F114075080122C8
:100127008019750A80802E750AC08029750A948007
:1001370024750AD4801F750A80801AE50A64016055
:10014700E1E50A640260E0E50A640360DFE50A644A
:100157000460DE80E1C3E50B9401F8E50A28F88521
:10016700000A85000F1140750800750D00E50C2584
:100177000DF8E6600DE50C250DF8860E311B050D13
:0601870080EB7508012267
:10018D00C2A1C2A0113411341134C2A5C2A4C2A39C
:10019D00C2A2D2A3D2A2D2A1113EC2A11134D2A128
:1001AD00113EC2A11134D2A1113EC2A11134D2A36C
:1001BD00C2A2D2A1113EC2A11134C2A5C2A4C2A332
:1001CD00D2A3C2A2D2A1113EC2A1C2A3D2A5D2A1D5
:1001DD00113EC2A11134C2A5D2A2D2A1113EC2A11B
:1001ED00C2A2D2A1113EC2A11134C2A2D2A1113E0E
:1001FD00C2A1D2A2D2A1113EC2A11134C2A2D2A1DA
:10020D00113EC2A1D2A5D2A4D2A3D2A2D2A1113E97
:08021D00C2A111347508012291
:0D0225007D047E2B7F9DDFFEDEFCDDFA22D6
:08023200E493F608A3D9F922B8
:10023A00758180120305318D750F011140750F0C00
:10024A001140750A01750B06750C303127750A02C3
:10025A00750B06750C5531277D0D7EAB7F7CDFFE55
:10026A00DEFCDDFA750F011140750A01750B017587
:10027A000C443127750A02750B03750C3831277D3A
:10028A000D7EAB7F7CDFFEDEFCDDFA750900C3E57F
:10029A00099404500B750F1C11405125050980EE75
:1002AA00750900C3E5099408500B750F18114051E0
:1002BA0025050980EE750900C3E5099408500B75F8
:0E02CA000F1C11405125050980EE80D480FEE6
:0E0305007830792D7582D8758302120232226B
:0802D8004C6364346269740098
:0C02E000456173793830353120763600E6
:1002EC006D696B726F456C656B74726F6E696B6167
:0102FC000001
:0802FD006578616D706C65000D
:00000001FF
