:10000000020448020000000000000002000000009E
:1000100000000002000000000000000200000000DC
:0E0020000000000200000000000000020000CE
:06002E007F14DFFE00223A
:0A0034007E097FE9DFFEDEFC0022FA
:02003E0000229E
:10004000E5195480F8630080E86004780080027845
:1000500001E81392A5E5195440F8630040E86004F4
:10006000780080027801E81392A4E5195420F8631F
:100070000020E86004780080027801E81392A3E58C
:10008000195410F8630010E86004780080027801C9
:10009000E81392A2E5106004780080027801E8136A
:1000A00092A0D2A1113EC2A1E5195408F86300083C
:1000B000E86004780080027801E81392A5E51954FD
:1000C00004F8630004E86004780080027801E81313
:1000D00092A4E5195402F8630002E86004780080F5
:1000E000027801E81392A3E5195401F8630001E8CE
:1000F0006004780080027801E81392A2E5106004A1
:10010000780080027801E81392A0D2A1113EC2A12A
:0B011000E510600411348002112E2263
:10011B008019751680802E7516C0802975169480EF
:10012B00247516D4801F751680801AE5166401603D
:10013B00E1E516640260E0E516640360DFE5166432
:10014B000460DE80E1C3E5179401F8E51628F88515
:10015B0000167510018500191140751000851819CE
:06016B0011407510012295
:10017100750DAF750E01750F16750A92750B017528
:100181000C1675D51353AAFE00D3E5D592E6F5D525
:01019100224B
:10019200851686E5AA30E60AE5AA20E70280F985F7
:0D01A2001686E5AA20E70280F9858617225F
:1001AF00851686E5AA30E60AE5AA20E70280F985DA
:0C01BF001686E5AA20E70280F9A8862237
:1001CB00C2A1C2A0113411341134C2A5C2A4C2A35E
:1001DB00C2A2D2A3D2A2D2A1113EC2A11134D2A1EA
:1001EB00113EC2A11134D2A1113EC2A11134D2A32E
:1001FB00C2A2D2A1113EC2A11134C2A5C2A4C2A3F4
:10020B00D2A3C2A2D2A1113EC2A1C2A3D2A5D2A196
:10021B00113EC2A11134C2A5D2A2D2A1113EC2A1DC
:10022B00C2A2D2A1113EC2A11134C2A2D2A1113ECF
:10023B00C2A1D2A2D2A1113EC2A11134C2A2D2A19B
:10024B00113EC2A1D2A5D2A4D2A3D2A2D2A1113E59
:08025B00C2A11134751001224B
:0C0263007510008516191140751001225D
:10026F00BD000BB90029E88CF084F8ACF022E4CD86
:10027F00FF75F008E828F8E933F9ED33FDE99CED57
:10028F009F4005FDE99CF908D5F0E9E4C9FC22EC93
:10029F00FFF5F0E98420D21CF9ACF075F008E828DE
:1002AF00F8EC33FC40079F5006D5F0F222C39FFCB9
:0502BF0008D5F0EA2261
:1002C40031CB751901114075190C11403171D3E509
:0602D400B092E5F5B02236
:1002DA008019751180802E7511C08029751194803E
:1002EA00247511D4801F751180801AE5116401608C
:1002FA00E1E511640260E0E511640360DFE5116481
:10030A000460DE80E1C3E5129401F8E51128F8855E
:10031A0000118500191140751000751400E51325A8
:10032A0014F8E6600DE5132514F8861651630514D2
:06033A0080EB75100122AA
:10034000C3E5B092E5F5B075160631927906E51170
:10035000098002C333D9FCF885001185001631AF3E
:1003600053000F850012E4F5138512137512007502
:10037000160031AFE5124200E513420185001285F7
:0A0380000113D3E5B092E5F5B022B9
:08038A00E493F608A3D9F9225F
:10039200C3E51394025005751401800375140275A8
:1003A200F002E51384E5F0F9D3E9940040057515F0
:1003B2000D80037515047CE87D03A811A912516F05
:1003C200743028F518851416851517311B7CE87DC5
:1003D20003A811A912516FA804A90585001185016E
:1003E200127C647D00516F743028F518851416E56F
:1003F200152401F517311B7C647D00A811A9125147
:100402006FA804A9058500118501127C0A7D00519F
:100412006F743028F518851416E5152402F5173186
:100422001B7C0A7D00A811A912516FA804A9058599
:100432000011850112743028F518851416E515246B
:0604420003F517311B2237
:1004480075818012050051C475110175120175136B
:100458003051DA75110275120175133D51DA7511B3
:100468000071408500088501098500118501127514
:10047800130071927EA37F1EDFFEDEFC0075110162
:1004880071408500088501098500118501127513E1
:100498000171927EA37F1EDFFEDEFC0075110271E2
:1004A8004085000885010985001185011275130230
:1004B80071927EA37F1EDFFEDEFC00751103714082
:1004C80085000885010985001185011275130371DE
:0E04D800927EA37F1EDFFEDEFC00816680FEAA
:0E0500007830791A7582E675830412038A2218
:0D04E60043303D20202020202043313D00E8
:0D04F30043323D20202020202043333D00D7
:00000001FF
